:020000040010EA
:10000000FC7F00208D021000350210003502100028
:1000100035021000350210003502100035021000C4
:1000200035021000350210003502100035021000B4
:1000300035021000350210003502100035021000A4
:100040003502100035021000350210003502100094
:100050003502100035021000350210003502100084
:100060003502100035021000350210003502100074
:100070003502100035021000350210003502100064
:100080003502100035021000350210003502100054
:100090003502100035021000350210003502100044
:1000A0003502100035021000350210003502100034
:1000B0003502100035021000350210003502100024
:1000C0003502100035021000350210003502100014
:1000D0003502100035021000350210003502100004
:1000E00035021000350210003502100035021000F4
:1000F00035021000350210003502100035021000E4
:1001000035021000350210003502100035021000D3
:1001100035021000350210003502100035021000C3
:1001200035021000350210003502100035021000B3
:1001300035021000350210003502100035021000A3
:100140003502100035021000350210003502100093
:100150003502100035021000350210003502100083
:100160003502100035021000350210003502100073
:100170003502100035021000350210003502100063
:10028C00FFF7D6FFC3B000F00BF8FFF7E3FF00F069
:0E029C0059F800F045F800A8FFF79CFFFEE7B8
:1001F80081B04FF000094FF0000CBDEB0A0F04DC92
:10020800BDEB0B0F01DBD446EA464BF8049BBBEB76
:100218000A0FFAD1BCEB0A0F05DDE246D9F800B0A7
:0A0228000BF1040BF1E701B0704781
:1001E00000231BB2432B06DA99004218002111604C
:0801F0005B1C1BB2F6E770472F
:1001B40081B01CF8019B0BF8019BBBEB0A0FF8D133
:0401C40001B07047CF
:1002AC0081B0CDF800E0174A174B1848006840F0B1
:1002BC00020116480160012A06D0042A04D0102A33
:1002CC0002D0302A00D002E01148026002E0012185
:1002DC000F48016003F0020078B10E480360FFF78D
:1002EC006DFF0D480178C1F3000000B9F9E70B4828
:1002FC00006800F4807000B9F9E7DDF800E001B0A7
:10030C00704700BF010000000000000008E000E0A2
:10031C002001084008A4004000A40040300108401F
:1001C80046F6FE17C0F2180700BF00BF7F1EFDD11C
:0801D80000BF00BF00BF70472B
:10032C0081B004490448016004490548016001B0EA
:10033C00704700BF80BB00000000002000000000E0
:04034C000400002089
:0802340081B0FEE701B0704744
:1002600081B04EF68850CEF20000016841F4700172
:10027000016000BF00BF00BF00BFF1EE100A40F4F4
:0A0280004000E1EE100A01B07047E3
:10023C0081B0DFF81000DFF810100860D0F800D0A3
:10024C0000F004B80000100008ED00E000BF01B0A1
:02025C007047E9
:1003500000B5DFF810B0DFF810A0FFF74DFF00BDCB
:0C036000704700BF0000002008000020D3
:00000001FF
